:020000040800F2
:10000000588401202D29010823900108D5270108D3
:10001000D5270108D5270108D5270108D5270108CC
:10002000D5270108D5270108D5270108592401083B
:10003000D5270108D527010801240108F921010865
:1000400005290108052901080529010805290108D4
:1000500005290108052901080529010805290108C4
:1000600005290108052901080529010805290108B4
:1000700005290108052901080529010805290108A4
:100080000529010805290108052901080529010894
:100090000529010805290108052901080529010884
:1000A0000529010805290108052901080529010874
:1000B0000529010805290108052901080529010864
:1000C0000529010805290108052901080529010854
:1000D0000529010805290108052901080529010844
:1000E0000529010805290108052901080529010834
:1000F0000529010805290108052901080529010824
:100100000529010805290108052901080529010813
:100110000529010805290108052901080529010803
:1001200005290108052901080529010805290108F3
:1001300005290108052901080529010805290108E3
:1001400005290108052901080529010805290108D3
:1001500005290108052901080529010805290108C3
:1001600005290108052901080529010805290108B3
:1001700005290108052901080529010805290108A3
:100180000529010805290108052901080529010893
:100190000529010805290108052901080529010883
:1001A0000529010805290108052901080529010873
:1001B0000529010805290108052901080529010863
:1001C0000529010805290108052901080529010853
:0801D0000529010805290108B9
:0801D800FFFFFFFFFFFFFFFF27
:1001E00001F0FF01102A2BDB10F0070F08D010F8E8
:1001F000013B013A8B422DD010F0070F42B3F6D1EC
:10020000F0B441EA012141EA014122F007047FF004
:1002100000070023F0E80256083C85EA010586EA5B
:10022000010685FA47F5A3FA87F586FA47F6A5FA97
:1002300087F68EB9EED1F0BC01F0FF0102F00702A3
:1002400032B110F8013B013A83EA010313B1F8D14E
:100250000020704701387047002D06BF354603382F
:10026000073815F0010F07D1013015F4807F02BF68
:10027000013015F4C03F0130F0BC0138704700BFB9
:100280002DE9F74F03690C69A34280467FDB013CEF
:1002900001F11407A00008F114052B18019357F879
:1002A000243055F8242001339A4207EB0009B2FBB1
:1002B000F3F631D34FF0000ABC46AE46D3465CF8A5
:1002C000042B93B206FB03A34FEA134A9BB2ABEB9A
:1002D0000303120CDEF800B006FB02A213FA8BF344
:1002E0004FEA124A1FFA82FBDEF80020CBEB1242E3
:1002F00002EB23429BB243EA0243E1454FEA224B21
:100300004EF8043BDBD22B5833B9019B043B9D4292
:100310001A4630D3C8F81040404603F00EFA0028C1
:1003200025DB013628464FF0000C57F8042BD0F897
:1003300000E093B2ACEB0303120C13FA8EF3C2EBA2
:100340001E4202EB23429BB243EA0243B9454FEA05
:10035000224C40F8043BE8D255F8242005EB8403F6
:100360002AB9043B9D421A460BD3C8F810403046C8
:1003700003B0BDE8F08F1268043B002ACAD1013CEB
:10038000C5E71268043B002AEFD1013CEAE70020F0
:10039000EEE72DE9F04F99B055EC104B0891016C48
:1003A0000D9283461493229ECDE9004549B1426CDB
:1003B0004A60012393408B6002F0C1FF0023CBF819
:1003C00040302B1EB9BF23F000430193002333605C
:1003D000019CB34BBCBF01223260A3431AD1149AD3
:1003E00042F20F731360009AC4F31303134300F037
:1003F0004E85239B0BB9AB4B23E0AA4B03930333EE
:10040000239A1360039819B0BDE8F08FA64B0393AD
:100410000833F5E79DED007B0022002351EC170B1C
:100420008DED0E7B01F080F9074660B1149A01232F
:100430001360239B002B00F027859C4B239A1360AD
:10044000013B0393DEE716AA17A99DED0E0B584654
:1004500003F060FAC4F30A568046002E7FD00F9B4B
:100460001597C3F31303DDE90E4543F07F5545F4BB
:100470004015A6F2FF3600228D4B2046294600F09B
:1004800033FD81A3D3E9002300F0E6FE80A3D3E986
:10049000002300F02BFD044630460D4600F072FEAE
:1004A0007DA3D3E9002300F0D7FE02460B46204689
:1004B000294600F01BFD04460D4601F067F90022B5
:1004C000824600232046294601F038F948B15046BB
:1004D00000F058FE22462B4601F026F908B90AF131
:1004E000FF3ABAF1160F59D8724B03EBCA03D3E99E
:1004F0000023DDE90E0101F021F9002850D00AF1B6
:10050000FF3A00231193169B9E1B731E079345BF52
:10051000C6F101030693002300234CBF0793069303
:10052000BAF1000F3EDB079BCDF840A05344079380
:1005300000230993089B092B00F28D80052BC4BF73
:10054000043B0893089BA3F10203CCBF00240124C1
:10055000032B00F28B80DFE803F02F3C3A7CDDE9CF
:1005600016631E4406F23240202811DDC0F140001F
:10057000009B844006F2124023FA00F0204300F072
:10058000F1FD01230446A1F1F875013E159372E7D0
:10059000009BC0F1200003FA00F0F0E70123B1E76F
:1005A0001190B0E7069BA3EB0A030693CAF1000380
:1005B000099300231093BDE700230C930D9B002BA0
:1005C00057DC0123049399461A460D920CE001234F
:1005D000F3E700230C930D9B534403F101090493AB
:1005E0004B46012BB8BF01230022CBF84420042244
:1005F00002F114009842DBF844103ED9584602F04C
:1006000079FEB9F10E0F0390CBF8400000F2D780CD
:10061000002C00F0D480BAF1000F69DD254A0AF001
:100620000F0302EBC30393ED007B4FEA2A14E206AB
:100630008DED0A7B5AD5204BDDE90E01D3E9082365
:1006400000F034FFCDE9000104F00F0403261A4D39
:1006500041E00123BEE70124002308930C944FF0EE
:10066000FF330493994600221223AEE701230C9333
:10067000F5E70D9B04939946B6E70131CBF844109A
:100680005200B5E7AFF3008061436F63A787D23FA5
:10069000B3C8608B288AC63FFB799F501344D33F71
:1006A0000000F07F4005020844050208BA03020872
:1006B0000000F83F98B8010888B90108E30708D599
:1006C000DDE90A01D5E9002300F0C6FDCDE90A0104
:1006D000013664100835002CF0D1DDE90A23DDE98C
:1006E000000100F0E3FECDE900011AE00226AEE7CA
:1006F00000F09F80CAF100049E4B9F4D04F00F0252
:1007000003EBC203D3E90023DDE90E0100F0A4FDF1
:10071000CDE90001241100230226002C7ED1002BFC
:10072000E1D1119B002B00F08680DDE9004500221D
:10073000924B2046294601F001F800287BD0B9F100
:10074000000F78D0049B002B35DD0AF1FF330A93AC
:10075000204600228A4B294600F07EFDCDE90001AB
:10076000049C0136304600F00DFDDDE9002300F069
:1007700073FD0022834B00F0B9FB0646A1F15077D0
:10078000002C5CD10022804BDDE9000100F0ACFBC5
:1007900032463B46CDE9000100F0EEFF002840F074
:1007A0008A82324607F10043DDE9000100F0C6FF0E
:1007B000002840F07E82DDE90E34CDE90034179B3D
:1007C000002BC0F24D81BAF10E0F00F34981694B45
:1007D00003EBCA0393ED007B0D9B002B8DED047B97
:1007E00080F2D680B9F1000F00F3D28040F0608231
:1007F0000022654B51EC170B00F02EFDDDE90023C4
:1008000000F0B0FF4C464E46002840F03982039D70
:10081000312305F8013B0AF1010A35E2E70705D566
:10082000D5E9002300F018FD0136012364100835D6
:1008300073E7022675E7CDF828A04C4692E70399A6
:100840004C4B03EBC4030C440C9953E902230029DD
:1008500044D000204D4900F029FE32463B4600F0CE
:1008600043FB039D06460F46DDE9000100F08EFFC5
:10087000129000F087FC02460B46DDE9000100F013
:1008800033FB129B303305F8013B32463B46CDE942
:10089000000100F053FF002860D1DDE900230020B3
:1008A000364900F021FB32463B4600F047FF002866
:1008B00040F0B480A5423FF47EAF0022304B30467A
:1008C000394600F0C9FC002206460F462C4BDDE9F4
:1008D000000100F0C1FCCDE90001C5E73046394612
:1008E00000F0BAFCCDE91201039E2546DDE90001C6
:1008F00000F04CFF074600F045FC303702460B463F
:10090000DDE9000100F0F0FA06F8017BA642CDE92E
:1009100000014FF0000226D11C4BDDE9120100F06E
:10092000E5FA02460B46DDE9000100F025FF00284C
:1009300074D1DDE912230020144900F0D5FA0246F3
:100940000B46DDE9000100F0F9FE00283FF433AF6B
:1009500015F8013C302B05F1FF3202D0DDF828A05C
:100960004AE01546F4E7064B00F076FCCDE90001BD
:10097000BCE700BF98B8010888B901080000F03F43
:100980000000244000001C40000014400000E03F34
:10099000DDE90067039DDDE904233046394600F0B8
:1009A00085FD00F0F3FE044600F0ECFBDDE90423D6
:1009B00000F052FC02460B463046394604F1300640
:1009C00000F092FA05F8016B039EAE1BB14502469A
:1009D0000B4638D100F08AFADDE9042306460F46BB
:1009E00000F0CAFEC0B9DDE904233046394600F004
:1009F0009BFE08B1E1070FD44146584602F09FFC28
:100A00000023149A2B700AF101031360239B002B1F
:100A10003FF4F8AC1D60F5E4CDF828A015F8012CE2
:100A2000392A05F1FF3308D1039A9A4209D10A9A6B
:100A3000039901320A9230220A701A7801321A7030
:100A40008CE71D46EAE700229D4B00F005FC0022E2
:100A5000002306460F4600F067FE00289BD0CBE738
:100A60000C9A002A00F0CB80089A012A00F3AE808D
:100A7000159A002A00F0A68003F23343099C069DD4
:100A8000069A1A440692079A01211A445846079278
:100A900002F027FD0646002D0CDD079B002B09DD2B
:100AA000AB42069AA8BF2B46D21A0692079AED1AB5
:100AB000D31A0793099BF3B10C9B002B00F0A38082
:100AC000002C10DD31462246584602F0A3FD424676
:100AD00001460646584602F00DFD41460746584677
:100AE00002F02DFCB846099B1A1B04D0414658461B
:100AF00002F090FD80460121584602F0F2FC109B66
:100B0000002B044640F381801A460146584602F005
:100B100081FD089B012B04467ADD0027236904EB45
:100B20008303186902F08DFCC0F12000079B184474
:100B300010F01F0000F08B80C0F12003042B40F365
:100B40008480C0F11C00069B03440693079B03446A
:100B500005440793069B002B05DD41461A4658467F
:100B600002F098FD8046079B002B05DD21461A46C2
:100B7000584602F08FFD0446119B002B69D0214698
:100B8000404602F0DAFD002863DA002341460A22DB
:100B9000584602F0DDFB0C9B0AF1FF3A8046002B21
:100BA00000F07C81002331460A22584602F0D0FB37
:100BB000049B002B064600F38B80089B022B40F31E
:100BC00087804EE0169BC3F1360357E7099B09F176
:100BD000FF34A342BFBF099B0994E21A109BBBBF1D
:100BE0009B1810931C1B0024B9F1000FB5BF069B86
:100BF000069DA3EB09054B46B8BF002340E7099CBF
:100C0000069D0C9E47E7099A70E7089B012B18DCAC
:100C1000009BB3B9019BC3F31303A3B9019B23F05A
:100C200000473F0D3F0537B1069B01330693079BF5
:100C3000013307930127109B002B7FF46FAF012036
:100C400074E70027F7E7009FF5E783D018461C30CC
:100C500079E7B9F1000F35DC089B022B32DDCDF8C6
:100C60001090049B63B921460522584602F070FBA0
:100C700001460446404602F060FD00283FF7C7AD3C
:100C80000D9B039D6FEA030A00272146584602F098
:100C900056FB002E3FF4B0AE2FB1B74203D0394619
:100CA000584602F04CFB3146584602F048FBA3E69A
:100CB00000242646E4E7DDF828A02646A7E500BF85
:100CC000000024400C9BCDF81090002B00F0ED802C
:100CD000002D05DD31462A46584602F0DBFC06466B
:100CE000002F56D07168584602F004FB3269023278
:100CF0000546920006F10C010C3004F04BF901227C
:100D00002946584602F0C6FC039B03F10109DDE9C0
:100D1000032313440993009B03F001033746079311
:100D2000064609F1FF33214640460093FFF7A8FA33
:100D3000034630330490394640460A9302F0FDFCE6
:100D4000324606902146584602F011FDC2680A9BC1
:100D5000054602BB0146404602F0EFFC0A9B0246F4
:100D6000294658460C920A9302F0E9FA089B0C9A1D
:100D700043EA0201079B0B434D460A9B0DD1392BD9
:100D800027D0069A002A01DD049B3133009A1370A4
:100D90007BE73046B8E70122E2E70699002904DB49
:100DA00008980143079801431ED1002AEEDD414611
:100DB00001225846069302F06DFC2146804602F05F
:100DC000BCFC0028069B02DCE0D1DA07DED5392B1B
:100DD000DAD1009A3923137015F8013C392B05F14B
:100DE000FF3247D00133D2E7002A03DD392BF0D0A0
:100DF0000133CBE7099A09F8013C914521D04146DE
:100E000000230A22584602F0A3FAB74280464FF068
:100E100000034FF00A023946584606D102F098FA0C
:100E20000746064609F101097BE702F091FA3146CF
:100E3000074600230A22584602F08AFA0646F1E7DE
:100E40000027414601225846009302F023FC214628
:100E5000804602F072FC0028BEDC02D1009BDB075A
:100E6000BAD415F8013C302B05F1FF327FF40DAFF9
:100E70001546F6E7039B934204D10AF1010A312398
:100E8000039A84E71546A7E7134BFFF7DABA239BCB
:100E9000002B7FF4BBAA114BFFF7D3BA049B002BA6
:100EA00003DC089B022B3FF7DCAE039D2146404646
:100EB000FFF7E6F900F1300305F8013B039A0499C6
:100EC000AA1A9142BCDD414600230A22584602F08C
:100ED0003FFA8046EAE700BFB9030208440502086A
:100EE00081F0004102E000BF83F0004330B54FEADB
:100EF00041044FEA430594EA050F08BF90EA020F48
:100F00001FBF54EA000C55EA020C7FEA645C7FEADA
:100F1000655C00F0E2804FEA5454D4EB5555B8BFFD
:100F20006D420CDD2C4480EA020281EA030382EA6E
:100F3000000083EA010180EA020281EA0303362D00
:100F400088BF30BD11F0004F4FEA01314FF4801CD3
:100F50004CEA113102D0404261EB410113F0004FE5
:100F60004FEA03334CEA133302D0524263EB43039C
:100F700094EA050F00F0A780A4F10104D5F1200E3A
:100F80000DDB02FA0EFC22FA05F2801841F1000195
:100F900003FA0EF2801843FA05F359410EE0A5F169
:100FA00020050EF1200E012A03FA0EFC28BF4CF09A
:100FB000020C43FA05F3C01851EBE37101F0004550
:100FC00007D54FF0000EDCF1000C7EEB00006EEB5D
:100FD0000101B1F5801F1BD3B1F5001F0CD34908E7
:100FE0005FEA30004FEA3C0C04F101044FEA44523E
:100FF00012F5800F80F09A80BCF1004F08BF5FEAC5
:10100000500C50F1000041EB045141EA050130BDA4
:101010005FEA4C0C404141EB010111F4801FA4F147
:101020000104E9D191F0000F04BF01460020B1FA9C
:1010300081F308BF2033A3F10B03B3F120020CDAD4
:101040000C3208DD02F1140CC2F10C0201FA0CF0B2
:1010500021FA02F10CE002F11402D8BFC2F1200C17
:1010600001FA02F120FA0CFCDCBF41EA0C019040CD
:10107000E41AA2BF01EB0451294330BD6FEA040416
:101080001F3C1CDA0C340EDC04F11404C4F1200201
:1010900020FA04F001FA02F340EA030021FA04F313
:1010A00045EA030130BDC4F10C04C4F1200220FA6A
:1010B00002F001FA04F340EA0300294630BD21FAA8
:1010C00004F0294630BD94F0000F83F4801306BF6E
:1010D00081F480110134013D4EE77FEA645C18BF62
:1010E0007FEA655C29D094EA050F08BF90EA020FF9
:1010F00005D054EA000C04BF1946104630BD91EAF1
:10110000030F1EBF0021002030BD5FEA545C05D1F3
:101110004000494128BF41F0004130BD14F5800432
:101120003CBF01F5801130BD01F0004545F0FE41A6
:1011300041F470014FF0000030BD7FEA645C1ABFDB
:10114000194610467FEA655C1CBF0B46024650EA12
:10115000013406BF52EA033591EA030F41F400213E
:1011600030BD00BF90F0000F04BF0021704730B5C4
:101170004FF4806404F132044FF000054FF0000199
:1011800050E700BF90F0000F04BF0021704730B55A
:101190004FF4806404F1320410F0004548BF40422F
:1011A0004FF000013EE700BF42004FEAE2014FEA84
:1011B00031014FEA02701FBF12F07F4393F07F4F5F
:1011C00081F06051704732F07F4208BF704793F062
:1011D0007F4F04BF41F40021704730B54FF4607475
:1011E00001F0004521F000411CE700BF50EA010278
:1011F00008BF704730B54FF000050AE050EA010221
:1012000008BF704730B511F0004502D5404261EB90
:1012100041014FF4806404F132045FEA915C3FF4D1
:10122000D8AE4FF003025FEADC0C18BF03325FEA6E
:10123000DC0C18BF033202EBDC02C2F1200300FA1F
:1012400003FC20FA02F001FA03FE40EA0E0021FA44
:1012500002F11444BDE600BF70B54FF0FF0C4CF432
:10126000E06C1CEA11541DBF1CEA135594EA0C0FE4
:1012700095EA0C0F00F0DEF82C4481EA030621EA1F
:101280004C5123EA4C5350EA013518BF52EA03355A
:1012900041F4801143F4801338D0A0FB02CE4FF00C
:1012A0000005E1FB02E506F00042E0FB03E54FF03C
:1012B0000006E1FB03569CF0000F18BF4EF0010E34
:1012C000A4F1FF04B6F5007F64F5407404D25FEA30
:1012D0004E0E6D4146EB060642EAC62141EA5551E3
:1012E0004FEAC52040EA5E504FEACE2EB4F1FD0C25
:1012F00088BFBCF5E06F1ED8BEF1004F08BF5FEAA3
:10130000500E50F1000041EB045170BD06F0004654
:1013100046EA010140EA020081EA0301B4EB5C0401
:10132000C2BFD4EB0C0541EA045170BD41F48011F9
:101330004FF0000E013C00F3AB8014F1360FDEBF1E
:10134000002001F0004170BDC4F10004203C35DAFA
:101350000C341BDC04F11404C4F1200500FA05F37D
:1013600020FA04F001FA05F240EA020001F000421E
:1013700021F0004110EBD37021FA04F642EB060194
:101380005EEA430E08BF20EAD37070BDC4F10C04BE
:10139000C4F1200500FA04F320FA05F001FA04F282
:1013A00040EA020001F0004110EBD37041F100016E
:1013B0005EEA430E08BF20EAD37070BDC4F1200579
:1013C00000FA05F24EEA020E20FA04F301FA05F2E1
:1013D00043EA020321FA04F001F0004121FA04F289
:1013E00020EA020000EBD3705EEA430E08BF20EA59
:1013F000D37070BD94F0000F0FD101F00046400093
:1014000041EB010111F4801F08BF013CF7D041EA14
:10141000060195F0000F18BF704703F00046520018
:1014200043EB030313F4801F08BF013DF7D043EAE9
:101430000603704794EA0C0F0CEA135518BF95EA9F
:101440000C0F0CD050EA410618BF52EA4306D1D126
:1014500081EA030101F000414FF0000070BD50EA45
:10146000410606BF1046194652EA430619D094EACF
:101470000C0F02D150EA013613D195EA0C0F05D1B9
:1014800052EA03361CBF104619460AD181EA03010D
:1014900001F0004141F0FE4141F470014FF00000C5
:1014A00070BD41F0FE4141F4780170BD70B54FF060
:1014B000FF0C4CF4E06C1CEA11541DBF1CEA1355E0
:1014C00094EA0C0F95EA0C0F00F0A7F8A4EB0504C2
:1014D00081EA030E52EA03354FEA013100F08880B9
:1014E0004FEA03334FF0805545EA131343EA126382
:1014F0004FEA022245EA111545EA10654FEA002637
:101500000EF000419D4208BF964244F1FD0404F5EF
:10151000407402D25B084FEA3202B61A65EB03054B
:101520005B084FEA32024FF480104FF4002CB6EB08
:10153000020E75EB030E22BFB61A754640EA0C0088
:101540005B084FEA3202B6EB020E75EB030E22BFC8
:10155000B61A754640EA5C005B084FEA3202B6EB09
:10156000020E75EB030E22BFB61A754640EA9C00C8
:101570005B084FEA3202B6EB020E75EB030E22BF98
:10158000B61A754640EADC0055EA060E18D04FEA56
:10159000051545EA16754FEA06164FEAC30343EAF6
:1015A00052734FEAC2025FEA1C1CC0D111F4801FC3
:1015B0000BD141EA00014FF000004FF0004CB6E7BC
:1015C00011F4801F04BF01430020B4F1FD0C88BF5B
:1015D000BCF5E06F3FF6AFAEB5EB030C04BFB6EB66
:1015E000020C5FEA500C50F1000041EB045170BD59
:1015F0000EF0004E4EEA113114EB5C04C2BFD4EB86
:101600000C0541EA045170BD41F480114FF0000E09
:10161000013C90E645EA060E8DE60CEA135594EA85
:101620000C0F08BF95EA0C0F3FF43BAF94EA0C0F88
:101630000AD150EA01347FF434AF95EA0C0F7FF4FD
:1016400025AF104619462CE795EA0C0F06D152EA51
:1016500003353FF4FDAE1046194622E750EA410635
:1016600018BF52EA43067FF4C5AE50EA41047FF446
:101670000DAF52EA43057FF4EBAE12E74FF0FF3CAB
:1016800006E000BF4FF0010C02E000BF4FF0010C7C
:101690004DF804CD4FEA410C7FEA6C5C4FEA430CF5
:1016A00018BF7FEA6C5C1BD001B050EA410C0CBF44
:1016B00052EA430C91EA030F02BF90EA020F0020A6
:1016C000704710F1000F91EA030F58BF994208BF0D
:1016D00090422CBFD8176FEAE37040F001007047CA
:1016E0004FEA410C7FEA6C5C02D150EA013C07D121
:1016F0004FEA430C7FEA6C5CD6D152EA033CD3D06C
:101700005DF8040B704700BF8446104662468C4665
:101710001946634600E000BF01B5FFF7B7FF002898
:1017200048BF10F1000F01BD4DF808EDFFF7F4FFC1
:101730000CBF012000205DF808FB00BF4DF808ED4C
:10174000FFF7EAFF34BF012000205DF808FB00BF6F
:101750004DF808EDFFF7E0FF94BF012000205DF891
:1017600008FB00BF4DF808EDFFF7CEFF94BF012046
:1017700000205DF808FB00BF4DF808EDFFF7C4FF3F
:1017800034BF012000205DF808FB00BF4FEA410292
:1017900012F5001215D211D56FF47873B3EB6252C3
:1017A00012D94FEAC12343F0004343EA505311F0EA
:1017B000004F23FA02F018BF404270474FF000007C
:1017C000704750EA013005D111F0004008BF6FF0BA
:1017D000004070474FF00000704700BF4FEA4102E1
:1017E000B2F1E04324BFB3F5001CDCF1FE5C0DD97F
:1017F00001F0004C4FEAC0024CEA5070B2F1004FC9
:1018000040EB830008BF20F00100704711F0804FCB
:1018100021D113F13872BCBF01F00040704741F490
:1018200080114FEA5252C2F11802C2F1200C10FA94
:101830000CF320FA02F018BF40F001004FEAC12378
:101840004FEAD32303FA0CFC40EA0C0023FA02F31C
:101850004FEA4303CCE77FEA625307D150EA0133F2
:101860001EBF4FF0FE4040F44000704701F00040C2
:1018700040F0FE4040F40000704700BF80F00040A0
:1018800002E000BF81F0004142001FBF5FEA410358
:1018900092EA030F7FEA226C7FEA236C6AD04FEA58
:1018A0001262D2EB1363C1BFD2184140484041409D
:1018B000B8BF5B42192B88BF704710F0004F40F44F
:1018C000000020F07F4018BF404211F0004F41F46B
:1018D000000121F07F4118BF494292EA030F3FD037
:1018E000A2F1010241FA03FC10EB0C00C3F120034A
:1018F00001FA03F100F0004302D5494260EB4000D9
:10190000B0F5000F13D3B0F1807F06D340084FEA43
:10191000310102F10102FE2A51D2B1F1004F40EB38
:10192000C25008BF20F0010040EA030070474900A0
:1019300040EB000010F4000FA2F10102EDD1B0FA6B
:1019400080FCACF1080CB2EB0C0200FA0CF0AABF60
:1019500000EBC25052421843BCBFD04018437047FE
:1019600092F0000F81F4000106BF80F40000013204
:10197000013BB5E74FEA41037FEA226C18BF7FEADB
:10198000236C21D092EA030F04D092F0000F08BF1D
:101990000846704790EA010F1CBF0020704712F004
:1019A0007F4F04D1400028BF40F00040704712F143
:1019B00000723CBF00F50000704700F0004343F0A8
:1019C000FE4040F4000070477FEA226216BF0846DE
:1019D0007FEA23630146420206BF5FEA412390EAA1
:1019E000010F40F4800070474FF0000304E000BF97
:1019F00010F0004348BF40425FEA000C08BF704748
:101A000043F0964301464FF000001CE050EA01020B
:101A100008BF70474FF000030AE000BF50EA010220
:101A200008BF704711F0004302D5404261EB41010D
:101A30005FEA010C02BF84460146002043F0B64332
:101A400008BFA3F18053A3F50003BCFA8CF2083A57
:101A5000A3EBC25310DB01FA02FC634400FA02FC60
:101A6000C2F12002BCF1004F20FA02F243EB020067
:101A700008BF20F00100704702F1200201FA02FCC9
:101A8000C2F1200250EA4C0021FA02F243EB0200BC
:101A900008BF20EADC7070477BB972B90029BEBF6D
:101AA00000204FF0004106E008BF00281CBF6FF087
:101AB00000414FF0FF3000F057B8ADF1080C6DE970
:101AC00004CE002909DB002B1ADB03F0F3F8DDF864
:101AD00004E0DDE9022304B07047404261EB4101BC
:101AE000002B1BDB03F0E6F8DDF804E0DDE9022360
:101AF00004B0404261EB4101524263EB4303704743
:101B0000524263EB430303F0D5F8DDF804E0DDE96E
:101B1000022304B0404261EB41017047524263EB43
:101B2000430303F0C7F8DDF804E0DDE9022304B065
:101B3000524263EB4303704753B94AB9002908BFC7
:101B400000281CBF4FF0FF314FF0FF3000F00CB801
:101B5000ADF1080C6DE904CE03F0ACF8DDF804E05B
:101B6000DDE9022304B07047704700BFF8B5D0E943
:101B700000670C464F4A002330463946FFF78CFF7A
:101B8000394605464B4A30460023FFF785FF002AB9
:101B9000BCBF02F5A83202F5C0724FF4616005F5D2
:101BA0002F23B2FBF0F100FB11224FF03C00ACBF41
:101BB00003F66C2303F66B23A160B2FBF0F100FB8C
:101BC0001122616022600721DA1C92FBF1F1C1EB66
:101BD000C101521A48BF0732002BA261B8BFA3F55A
:101BE0000E323548AEBF93FBF0F0A2F52C7292FB9B
:101BF000F0F0324A02FB003348F6AC61B3FBF1F17E
:101C0000194440F2B457B3FBF7F2891A2C4AB3FBDC
:101C1000F2F28A1A48F69461B2FBF1F10B4440F2F9
:101C20006D16B2FBF6F5B2FBF7F29A1A06FB152316
:101C3000992103EB830202325F1CB2FBF1F6714380
:101C400002314FF0050CB1FBFCF1791A40F2F95763
:101C5000BA4294BF02226FF0090216444FF4C872D0
:101C600002FB0050012E98BF0130B3F5997F0BD3D2
:101C7000A3F59973E361A0F26C700023C4E90460DA
:101C8000E16023622046F8BDAA0705D16427B5FBB1
:101C9000F7F207FB12525AB94FF4C877B5FBF7F2C7
:101CA00007FB1252B2FA82F252093B331344E1E7C6
:101CB0000122FAE780510100B13A02004FC5FDFF51
:101CC000B03A0200F7B501683B29044611D93C221D
:101CD000684603F059FA019A63680099002A0B4498
:101CE0006360BBBF3C3203F1FF3322602260B8BFA8
:101CF000636061683B2911D93C22684603F044FACD
:101D0000019AA3680099002A0B44A360BBBF3C3230
:101D100003F1FF3362606260B8BFA360A168172956
:101D200011D91822684603F02FFA019AE368009946
:101D3000002A0B44E360BBBF183203F1FF33A260FB
:101D4000A260B8BFE36021690B2911D90C22684653
:101D500003F01AFA019A63690099002A0B4463613F
:101D6000BBBF0C3203F1FF3322612261B8BF636154
:101D70006369990720D1642193FBF1F201FB1232D0
:101D8000E2B903F26C734FF4C87193FBF1F201FBFB
:101D90001233002B14BF1C231D23E268002A0FDC22
:101DA000344F0B2664204FF4C875D4F80CC0BCF136
:101DB000000F14DD03B0F0BD1C23EEE71D23ECE79C
:101DC0002C4F4FF0000C64254FF4C876D4E9031271
:101DD000012A2FD057F8220081422EDCEAE7216940
:101DE00001392161013114D16369591E8A07C4E99F
:101DF000046117D191FBF0F200FB1211A1B903F2BB
:101E00006B7393FBF5F205FB1233002B14BF1C23FD
:101E10001D232269012A14BF57F822201A46624462
:101E2000E260C2E71C23F4E71D23F2E71C23CDE7A1
:101E30001D23CBE78B42BDDA18460132091A0C2A62
:101E4000E1602261C2D163695A1C9107C4E904C2EE
:101E5000ECD192FBF5F105FB1122002AE8D103F247
:101E60006D7393FBF6F206FB1233002B14BF1C2399
:101E70001D23ABE730BA01082DE9F04F8BB00646C1
:101E800001F01AFA07463046FFF71CFFD6E9002397
:101E90004FF03C0AB06875690AFB0323D6E9034298
:101EA0004FF4616A0AFB003AC14B03EB8203013C29
:101EB0001B6B012A1C4411DDA9070FD1642295FB7D
:101EC000F2F302FB135343B905F26C714FF4C8727D
:101ED00091FBF2F302FB131303B9013405F51C5314
:101EE000103344F620629342F46100F25B81462D88
:101EF00075DD462340F26D1E64214FF4C8709A07C9
:101F000067D1B3FBF1F201FB1232002A64D103F274
:101F10006C7CBCFBF0F200FB12C2002A14BF7246BC
:101F20004FF4B77201339D421444E8D1A14B4FEAFC
:101F3000EA7BC3FB04AB00F081FF9F4BD3F800901A
:101F4000B9F1000F3FD0D6F8209070697B68B9F1E5
:101F5000010F00F26C70C846A8BF4FF00108834221
:101F60007FD13B6D1946DA17CDE90012D7E912127D
:101F7000CDE90212DDE90201BA6A801A61EBE27171
:101F80008245CDE906017BEB010171DA0098396ADF
:101F9000091A04910198796A61EB00010591396889
:101FA000002975D0DDE9040182457BEB010105DBE9
:101FB000DDE9060182457BEB01016FDBB9F1000F22
:101FC0004FF000096FDABB6A1AEB03004BEBE371C9
:101FD000AEE040F26D12A5E74FF4B772A2E7A5D0CC
:101FE000452340F26D1E64214FF4C87012E062BBBD
:101FF00093FBF1F201FB123252BB03F26C7C9CFBAF
:10200000F0F200FB12C2002A14BF72464FF4B772FE
:10201000A41A013B9D4203F00302E8DBDAB9642213
:1020200095FBF2F302FB1353C3B905F26C714FF445
:10203000C87291FBF2F302FB1313002B40F26D13F5
:1020400008BF4FF4B773E41A70E740F26D12DFE790
:102050004FF4B772DCE740F26D13F4E74FF4B77357
:10206000F1E700F03DFE00287FF47BAFC14654E06D
:1020700000980299091A08910198039961EB0001EF
:102080000991DDE9080182457BEB0101EEDB7DE78B
:10209000DDE9040182457BEB010189DBB9F1000F29
:1020A0003FDB4FF0010988EA0908B8F1010F34D18C
:1020B000B9F1000F4BD0D31A3268D6F80C801A440D
:1020C0001AEB030A326030464BEBE37BFFF7FAFD75
:1020D000F268B2EB080220D0012A3ADC901CD8BF8B
:1020E0000122F369D31814443CD56A1E910733D1F9
:1020F000642192FBF1F301FB132383BB05F26B75A3
:102100004FF4C87295FBF2F302FB1355002D40F219
:102110006D1318BF4FF4B673F361B9F1010F7FF47B
:1021200052AF3B6D1AEB03004BEBE3714FF001092B
:102130000434072394FBF3F3C3EBC303E41A48BF4F
:102140000734C6F82090B4610BB0BDE8F08F9B1A3D
:10215000B2E74FF0FF32C4E74FF4B673DCE740F26A
:102160006D13D9E7AA0717D1642195FBF1F201FBA2
:102170001252A2B905F26C754FF4C87195FBF1F2D9
:1021800001FB1255002D40F26D1208BF4FF4B772DB
:102190009342A8BF9B1ABFE740F26D12F8E74FF4D5
:1021A000B772F5E74FF0FF304FF0FF31CCE700BFDB
:1021B00030BA010880510100200000202DE9FF47BE
:1021C00055EC104B002D0E4691461946DDF830A017
:1021D0004FF0000203DA05F100431D462D220D9F4A
:1021E0000A7027F02007462F04D0452F00D1013672
:1021F000022100E0032103AB019302AB00933246BE
:10220000534645EC104BFEF7C4F8472F804602D1E9
:1022100019F0010F22D0462F08EB060911D198F8CA
:102220000030302B0AD10022002320462946FFF738
:102230007BFA18B9C6F10106CAF80060DAF8003076
:1022400099440022002320462946FFF76DFA08B181
:10225000CDF80C903022039B4B4508D3039B0E9A7C
:10226000A3EB08034046136004B0BDE8F087591C97
:1022700003911A70EFE7F7B50029BABF49422D2341
:102280002B2309290270437021DD0DF107031F463E
:102290000A2691FBF6F206FB12143034632903F18F
:1022A000FF3503F8014C0ADC303205F8012C023B03
:1022B000821CBB42144605D3201A03B0F0BD2B4646
:1022C0001146E6E713F8011B02F8011BF1E7302382
:1022D00019448370041DC170EEE72DE9F04F8DB0F5
:1022E0000C46DDF8588016461F46054600F0EAFF0A
:1022F00003680693184602F016FF00230A93D8F8E5
:1023000000300790073323F0070303F1080294F825
:1023100018A0D4F800B0C8F80020D3E90023C4E91D
:10232000122394ED127B8DED047BDDE9048323F011
:1023300000494FF0FF32A74B4046494602F0A4FC4B
:1023400070BB4FF0FF32A34B40464946FFF700FAFF
:1023500030BB00220023DDE90401FFF7EFF910B1E3
:102360002D2384F843309C4A9C4BBAF1470F94BF0D
:102370009046984603232BF00402236122604FF01D
:102380000009009733460BAA2146284600F0D0F9F1
:10239000013040F08C804FF0FF300DB0BDE8F08F81
:1023A000DDE904231046194602F06EFC40B1059B9E
:1023B0008B4A002BBCBF2D2384F84330894BD4E7D4
:1023C00063685A1C0AF0DF093ED1062363600023CC
:1023D00003930AAB4BF48062CDE901A309AB0093F0
:1023E000616822600DF123039DED040B2846FFF781
:1023F000E5FEB9F1470F8046099908D1C81C02DBF8
:102400006368994241DDAAF1020A5FFA8AFABAF1D9
:10241000650F20D80139524604F150000991FFF7A9
:102420002AFF0A9A1318012A8146236102DC2268D6
:10243000D20701D5013323619DF82330002BA0D0B2
:102440002D2384F843309CE7B9F1470FBFD1002B0F
:10245000BDD10123BAE7BAF1660F18D1002963682C
:102460000BDD216113B92268D00702D501330B447B
:102470002361A1654FF00009DEE713B92268D20796
:1024800001D50233F4E70123F2E74FF0670A0A9B14
:10249000994205DB23682161D807EAD54B1CE7E7A1
:1024A0000029D4BFC1F1020201221344E0E72368EE
:1024B0005A0507D42369424631462846B8470130B9
:1024C0002BD168E7BAF1650F40F2DD8000220023CE
:1024D000D4E91201FFF728F9002833D00123424A3A
:1024E00031462846B84701303FF455AFDDE90923AE
:1024F0009A4202DB2368D8070FD5DDE9062331466F
:102500002846B84701303FF446AF4FF0000804F1C9
:102510001A090A9B013B434509DC23689B0700F12C
:102520000281E0680B9B9842B8BF184635E701234B
:102530004A4631462846B84701303FF42CAF08F1EF
:102540000108E6E7099B002B2BDC0123264A3146D4
:102550002846B84701303FF41EAFDDE90923134395
:1025600002D12368D907D8D5DDE9062331462846AC
:10257000B84701303FF40FAF4FF0000904F11A0AD9
:10258000099B5B424B4501DC0A9B94E701235246C1
:1025900031462846B84701303FF4FDAE09F1010944
:1025A000EEE70A9AA36D9A42A8BF1A46002A9146FE
:1025B00007DD1346314642462846B84701303FF40E
:1025C000EAAE04F11A034FF0000B29EAE97904930B
:1025D00016E000BFFFFFEF7FA4040208A804020872
:1025E000AC040208B0040208B90302080123049AEB
:1025F00031462846B84701303FF4CDAE0BF1010B10
:10260000D4F858A0AAEB09035B45EFDCDDE9092308
:102610009A421BDB2368DA0718D4DDE909239245C7
:102620001CDBA3EB0A09B9F1000F08DD4B4608EBF0
:102630000A0231462846B84701303FF4ACAE4FF0AD
:10264000000829EAE97904F11A0A14E0DDE9062311
:1026500031462846B8470130DFD19CE6A3EB02099A
:10266000E1E70123524631462846B84701303FF49E
:1026700092AE08F10108DDE909239B1AA3EB0903D7
:102680004345EEDC49E70A9A012A01DCDB0737D52E
:102690000123424631462846B84701303FF47BAE1D
:1026A000DDE9062331462846B84701303FF473AED2
:1026B00000220023D4E91201FFF736F8D8B90A9BAB
:1026C00008F10102013B31462846B84701300ED1DE
:1026D00061E60123524631462846B84701303FF4AF
:1026E0005AAE08F101080A9B013B4345F1DC4B4619
:1026F00004F15002E0E64FF0000804F11A0AF2E794
:1027000001234246DFE701234A4631462846B847BF
:1027100001303FF440AE08F10108E3680B9A9B1AC0
:102720004345F0DCFDE64FF0000804F11909F4E739
:102730002DE9F04791461F468A680B69DDF8208035
:102740009342B8BF1346C9F8003091F843200646BB
:102750000C4612B10133C9F800302368990642BF14
:10276000D9F800300233C9F80030256815F00605A5
:1027700007D104F1190AE368D9F800209B1AAB428B
:1027800028DC94F843302268003318BF01239206F6
:102790002DD404F1430239463046C047013020D0E1
:1027A0002368E568D9F8002003F00603042B08BF6E
:1027B000AD1AA36822690CBF25EAE575002593428E
:1027C000C4BF9B1AED184FF000091A344D451AD1B9
:1027D000002008E00123524639463046C047013008
:1027E00003D14FF0FF30BDE8F0870135C3E7E118B2
:1027F0005A1C302081F84300224494F8451082F896
:1028000043100233C5E70123224639463046C0470C
:102810000130E6D009F10109D8E72DE9F043064679
:102820000C4601F14300097E85B06E299846174693
:102830000C9B00F0BA8024D8632939D00AD800292B
:1028400000F0C380582900F0918004F1420584F81B
:10285000421035E0642901D06929F6D125681A684B
:1028600015F0800F02F104012CD012681960002AC3
:1028700003DA2D23524284F84330DFF8C0C10A2323
:102880003FE0732900F0A58008D86F2921D0702976
:10289000DBD1226842F02002226003E0752918D0C3
:1028A0007829D2D1782284F84520DFF894C161E0FC
:1028B0001A68111D1960136884F8423004F142054A
:1028C000012393E01268196015F0400F18BF12B28F
:1028D000CDE7D4F800C01A681CF0800F02F104059F
:1028E0001D6001D0126803E01CF0400FFAD012887E
:1028F000DFF848C16F290CBF08230A23002184F8A0
:1029000043106568A560002DA2BF216821F0040175
:1029100021600AB9002D46D00546B2FBF3F103FB56
:10292000112E93421CF80EE005F801ED39D9082B61
:102930000BD12368DA0708D5236962689A42DEBFA3
:10294000302305F8013C05F1FF35401B2061CDF82F
:1029500000803B4603AA21463046FFF7E9FE0130DE
:1029600049D14FF0FF3005B0BDE8F083DFF8CCC0AF
:1029700084F845101D68216855F8042B1D600D066C
:102980000BD5CD0744BF41F0200121601AB923685F
:1029900023F0200323601023B0E74B0648BF92B218
:1029A000EFE70A46B9E70546C1E71A68D4F800C060
:1029B0006169151D1D601CF0800F136801D019603E
:1029C00003E01CF0400FFAD0198000232361054674
:1029D000BDE71A68111D1960156862680021284654
:1029E000FDF7FEFB08B1401B6060636823610023B4
:1029F00084F84330ABE723692A4639463046C0475E
:102A00000130AED023689B0713D4E068039B984243
:102A1000B8BF1846A7E701234A4639463046C047A3
:102A200001309ED00135E368039A9B1AAB42F2DC79
:102A3000EBE7002504F11909F5E700BFB40402082B
:102A4000C50402080CB400B59BB01CAB0191059104
:102A50006FF0004106910391074953F8042B04914C
:102A600001A9009301F0A7F9019B00221A701BB085
:102A70005DF804EB02B070470802FFFF0EB400B52A
:102A80009AB01BAB019005906FF000410948069188
:102A90000391094953F8042B04910068009301A99C
:102AA00001F089F9019B00221A701AB05DF804EB5D
:102AB00003B07047F8F301200802FFFF2DE9F0474B
:102AC000394F86460846054615F8014BE65D16F077
:102AD000080634D12D2C34D12C784FF00108851CF8
:102AE000002B5CD0102B09D1302C07D1287800F0B6
:102AF000DF0058284ED16C7810230235B8F1000F52
:102B000014BF4FF0004C6FF0004C0027BCFBF3F9F2
:102B1000384603FB19CAA4F13006092E18D83446EA
:102B2000A34224DD7E1C07D081451DD301D1A245DF
:102B30001ADB00FB0340012715F8014BEBE72846A1
:102B4000C1E72B2C08BF2C78B04608BF851CC7E70F
:102B5000A4F14106192E01D8373CE1E7A4F1610642
:102B6000192E04D8573CDBE74FF0FF37E4E77B1C16
:102B700006D12223CEF80030604642B9BDE8F08786
:102B8000B8F1000F00D04042002AF7D007B1691E0B
:102B90001160F3E73024002BB0D10823AEE7302CCE
:102BA000A4D00A23AAE700BF01BB010886E71346A9
:102BB0000A4601460148006880E700BFF8F301209B
:102BC00013460A4601460148006877E7F8F30120FA
:102BD0002DE9F043384F86460846054615F8014B67
:102BE000E65D16F0080631D12D2C31D12C784FF04E
:102BF0000108851C002B5AD0102B09D1302C07D18D
:102C0000287800F0DF0058284CD16C78102302356A
:102C10004FF0FF3C0026BCFBF3FC03FB0CF96FEA12
:102C200009093046A4F13007092F18D83C46A342C1
:102C300024DD002E1FDB84451DD301D1A1451ADB05
:102C400000FB0340012615F8014BEBE72846C4E7DB
:102C50002B2C08BF2C78B04608BF851CCAE7A4F10E
:102C60004107192F01D8373CE1E7A4F16107192F7B
:102C700004D8573CDBE74FF0FF36E4E7002E07DAD5
:102C80002223CEF800304FF0FF3042B9BDE8F08388
:102C9000B8F1000F00D04042002AF7D006B1691EFB
:102CA0001160F3E73024002BB2D10823B0E7302CB9
:102CB000A6D00A23ACE700BF01BB010888E7134692
:102CC0000A4601460148006882E700BFF8F3012088
:102CD00013460A4601460148006879E7F8F30120E7
:102CE0002DE9F74F804600F0E7FA40F2B1739845BE
:102CF00040F398806FF4F66343449B1040F26D12EA
:102D0000A8F2B27502FB05356FF06302A8F26D738D
:102D100093FBF2F31D444FF4C8736FF4C86298FB41
:102D2000F3F703FB17874244B7FA87FCB2FBF3F2D1
:102D300008F0030315446422C0F8048098FBF2F6FF
:102D40004FEA5C1C02FB1686044600F1500B009310
:102D50004FF0070E227A63694A2A28D10099EA18AF
:102D600001B906B90FBB3B2BD4BF00230123134489
:102D70005A1EA3692C4901FB0232A36A13441A4666
:102D8000DB17C4E908232834A345E3D1D0E908457B
:102D9000D0E91223944275EB0303B4BF012300234F
:102DA0000360012003B0BDE8F08F0023DFE7442A71
:102DB00001D1EA18DDE7009A72BB002E0CBFE04695
:102DC0004FF001081949E26801924FF0300A0AFBFE
:102DD00008182A464FF00009A8F10408019909F1E2
:102DE0000109494558F829A018DC02F1040898FBAC
:102DF000FEF9C9EBC909A8EB0909B3EB0909236975
:102E000003F1FF3348BF09F10709C3EBC3034B4488
:102E1000534505DA1A44ACE7E046D3E75244DDE710
:102E2000073BF5E70020BDE78051010094BA010897
:102E3000014B186800F004B8F8F30120FFF7F8BF61
:102E40002DE9F04F8DB0074600F036FAAE49AF4E8F
:102E50000546384600F028FA044670B9AC4BAD4A36
:102E60001860AD4B1860AD4B3068C3E9002200F02C
:102E700039FA34600DB0BDE8F08F316800295FD1B8
:102E8000306800F02FFA204602F04DF9411C384618
:102E900000F068FE3060002857D12378A04AA1498D
:102EA0003A2B08BF01340AAE3346204601F03AF906
:102EB0000028DFDD0A9BE718E35C2D2B49D10137A1
:102EC0004FF0FF340DF1200A0DF11E0B4FF00008FA
:102ED0000396CDE9016ACDF800B0334607AA9249BE
:102EE000ADF81E803846ADF8208001F01BF9404552
:102EF000C0DDBDF81E30BDF820203C2101FB0322BF
:102F0000BDF81C304FF4616101FB03235C430A9A56
:102F1000834BAC62814C83492360174403F10B0956
:102F20004A463346384601F0FDF8404516DC236832
:102F30006360774BAA6A1A60774BC3F8008099E701
:102F400002F0C3F800289BD194E7214602F0C7F8AD
:102F5000A3E72B2B08BF01370124B3E70A9BC4F872
:102F60000490FC18FB5C2D2B40F08B8001344FF05B
:102F7000FF370023ADF81C30ADF81E30ADF820301F
:102F80000A93CDE902A6CDE900B6334607AA664901
:102F9000204601F0C7F8002878DCAF6AA7F5616722
:102FA0000A9B2F651C442F464FF0000923782C2BD9
:102FB00008BF013494F80080B8F14D0F78D10DF1BD
:102FC0002603CDE9016309AB0093039633460DF167
:102FD00022025649204601F0A5F803287FF44AAFA3
:102FE000BDF822104B1E0B2B3FF644AFBDF824203A
:102FF000531E042B3FF63EAFBDF82630062B3FF69E
:1030000039AFC7E9031287F808807B610A9B04EB9C
:1030100003080223ADF81C300023ADF81E30ADF8D4
:1030200020300A9398F800302F2B09D1CDE902A661
:10303000CDE900B6334607AA3D49404601F072F893
:10304000BDF81E30BDF820203C2101FB0322BDF855
:103050001C304FF4616101FB0323BB610A9C2837DC
:103060004444B9F1000F20D06868FFF739FE284BBF
:10307000AA6A1A602B6D9B1A274A18BF0123136096
:10308000F8E62B2B08BF0134012772E7BDF81E308C
:10309000BDF820203C2101FB0322BDF81C304FF479
:1030A000616101FB03235F437AE74FF001097DE78C
:1030B000B8F14A0F06BF0134434644230A220BA944
:1030C00020460593FFF704FEDDF82C80ADF82600BE
:1030D000A045059B14D14D23B9F1000F07D12B72E8
:1030E00003210223C5E90313C5F8149091E785F87D
:1030F00030300B220123C5E90D230023EB6388E761
:1031000080B23B72786184E7D60402080000002098
:103110001C000020D90402082000002088F60120AD
:1031200004000020DD04020800050208EC04020887
:10313000FF040208FFF784BE30B5141E05469BB09D
:10314000184605DA8B232B604FF0FF301BB030BDE3
:103150004FF40273ADF8103014BF04F1FF3323466F
:10316000039306934FF6FF7301910591ADF812306A
:1031700002461E9B01A9284600F01DFE431CBCBF51
:103180008B232B60002CE1D0019B00221A70DDE71D
:1031900007B5009313460A46014603480068FFF747
:1031A000CBFF03B05DF804FBF8F3012000B59BB042
:1031B000019105916FF00041069103910549049139
:1031C00001A900F0F8FD019B00221A701BB05DF808
:1031D00004FB00BF0802FFFF13460A4601460248EF
:1031E0000068FFF7E3BF00BFF8F3012000B5104B04
:1031F0008DB06A4603F128061546186859681446CA
:1032000003C40833B3422246F7D118689B88A380D1
:103210002060284601F087FF29460246022015F06B
:1032200018FF062000F04DFF7F200FF0C3FC00BF09
:10323000120502082DE9F84F06468A46174602F0A5
:103240000AF8184B1C68994634B15346984613F84F
:10325000012B3AB13D2AF9D1304601F0FDFF0020A3
:10326000BDE8F88FA8EB0A08A34654F8040B002821
:10327000F2D04246514601F05EFF0028F4D154F8E6
:10328000043C03EB080513F808303D2BECD1D9F8CA
:103290000030ABEB03039B1030463B6001F0DCFFDA
:1032A000681CDDE790F6012007B501AAFFF7C2FF11
:1032B00003B05DF804FB00BF00487047A0F3012095
:1032C000F03070470048704784F70120004870478D
:1032D00084F70120024B0146186800F043BC00BF90
:1032E000F8F30120024B0146186800F0EDBB00BF67
:1032F000F8F30120C36C70B505460C467BB1EB6C4E
:1033000053F82400A0B9012101FA04F6721D9200BD
:10331000284601F04DFF48B1C0E901460BE02122EB
:10332000042101F045FFE8640028E8D1002070BDC9
:10333000026843F824200023C0E90333F7E731B1E2
:10334000C36C4A6853F82200086043F822107047A3
:103350002DE9F0410D691F4606460C4601F1140C9B
:103360000023DCF8000081B202FB01710F0C000C9D
:1033700002FB007089B2013301EB00419D424FEA2C
:1033800010474CF8041BECDCD7B1A368AB4212DC4D
:10339000616830460131FFF7ADFF2269023204F166
:1033A0000C01804692000C3001F0F4FD21463046BD
:1033B000FFF7C5FF444604EB850301355F612561D6
:1033C0002046BDE8F0812DE9F8430C4615461F461E
:1033D00009220833064693FBF2F3002101229A42A8
:1033E00020DB3046FFF786FF089B4361092D4FF035
:1033F0000103036119DD04F10909C8462C4418F8DA
:10340000013B0146303B0A223046FFF7A1FFA045B1
:10341000F5D1A5F108044C442D1B6319BB4207DB11
:10342000BDE8F88352000131D9E70A340925F3E7F2
:1034300014F8013B0146303B0A223046FFF788FF73
:10344000EBE7020C12040346CAB90304102013F080
:103450007F4F04BF1B02083013F0704F04BF1B01E5
:10346000043013F0404F04BF9B000230002B05DBFB
:1034700013F0804F00F1010008BF202070470020AA
:10348000E5E7036813F0070201460BD0DA0724D4FE
:10349000980749BF5B089B0801200B605CBF0B606D
:1034A0000220704798B2B0B91B0C102013F0FF0F28
:1034B00004BF1B0A08301A0704BF1B0904309A070F
:1034C00004BF9B080230DA0703D45B0800F1010057
:1034D00005D00B6070471046E8E7002070472020B9
:1034E000704710B50C460121FFF704FF012244612B
:1034F000026110BD2DE9F74F90460A69D8F81030E7
:103500009A42B8BF0B460C46BCBF44469846276952
:10351000D8F81090A368616807EB0906B342B8BFFA
:103520000131FFF7E7FE00F1140505EB860E2B468F
:103530000022734516D304F1140308F1140203EBBF
:10354000870702EB89030093009B019293420CD8FA
:10355000002E03DD5EF8043D002B59D0066103B058
:10356000BDE8F08F43F8042BE3E7B2F800A0BAF10E
:10357000000F23D004F11409AC464FF0000859F8AD
:10358000041BDCF800B08BB21FFA8BFB0AFB03B301
:103590004FEA114BDCF8001043444FEA11480AFB94
:1035A0000B8101EB13419BB243EA01434F454FEAC4
:1035B00011484CF8043BE2D8CCF80080019BB3F8EA
:1035C00002900432B9F1000F20D02B6804F11408E6
:1035D000AC464FF0000AB8F80010BCF802B009FB86
:1035E00001B18A449BB243EA0A434CF8043B58F8C1
:1035F000043BBCF800101B0C09FB031303EB1A433C
:1036000047454FEA134AE6D8CCF8003004359BE72B
:10361000013E9DE72DE9F843154612F003020646E8
:103620000F4607D0013A1A4C002354F82220FFF726
:103630008FFE0746AD1027D0B46C44B940F271211B
:103640003046FFF74EFF0023B064044603604FF09E
:103650000008EB070AD5394622463046FFF74AFFF5
:10366000394681463046FFF76AFE4F466D100BD053
:10367000206838B9224621463046FFF73BFF2060DC
:10368000C0F800800446E4E73846BDE8F88300BF90
:1036900088B801082DE9F0470C464FEA621A236901
:1036A00049680AEB0309A3680746164609F10105B4
:1036B000AB4233DB3846FFF71DFE0023804600F1A6
:1036C000140100F11002184653452ADB20692AEA4A
:1036D000EA7A04F1140316F01F0201EB8A0103EBEE
:1036E000800C22D0C2F1200E00201E68964030438C
:1036F00041F8040B53F8040B9C4520FA0EF0F4D863
:10370000086008B109F10205013D3846C8F81050BB
:103710002146FFF714FE4046BDE8F08701315B000B
:10372000C6E742F8040F0133CEE7043953F8042BFF
:1037300041F8042F9C45F9D8E6E703690A699B1A0A
:1037400030B50CD19200143014318418114454F85F
:10375000045D51F8042D954203D005D3012318468A
:1037600030BDA042F3D3FAE74FF0FF33F7E72DE97E
:10377000F0470D460746114628461446FFF7DDFF81
:10378000061E08D131463846FFF7B4FD0123C0E9D3
:103790000436BDE8F087A4BF23462C46384661684E
:1037A000A6BF1D4600260126FFF7A4FD2B69C660B3
:1037B000266905F1140904F1140202EB860709EBEE
:1037C000830800F114054FF0000E52F804AB59F8CD
:1037D000044B1EFA8AF1A3B2C91A230CC3EB1A4395
:1037E00003EB214389B24FEA234EC84541EA034324
:1037F000944645F8043BE8D8BC4504D355F8043D4D
:1038000083B10661C5E75CF8041B1EFA81F31A1444
:1038100002EB11429BB243EA02434FEA224E45F8C3
:10382000043BE9E7013EE9E7114B10EE902A1A400C
:10383000A2F15073002B04DD0020194641EC100B5F
:1038400070475B421B15132B4FF000004FF0000137
:1038500004DC4FF4002242FA03F1EFE7143B1E2B85
:10386000DABF4FF0004222FA03F301231846E5E7DE
:103870000000F07FF8B5056900F1140707EB850536
:103880002E1F55F8044C2046FFF7DBFDC0F1200346
:103890000A280B60DFF878C014DCC0F10B0E24FAA4
:1038A0000EF1B74241EA0C0334BF55F8081C002161
:1038B000153004FA00F021FA0EF140EA010243EC5F
:1038C000102BF8BDB7423ABFA5F1080655F8081C01
:1038D00000210B3817D0C0F1200C04FA00F5BE42CD
:1038E00021FA0CF445EA04058CBF56F8044C002478
:1038F00045F07F5301FA00F024FA0CF443F440132E
:1039000040EA0402DBE744EA0C030A46D7E700BFBB
:103910000000F03F2DE9F7430E46012159EC108BD2
:103920001546FFF7E7FCC9F30A540746C9F313032A
:103930002CBB0193B8F1000326D068460093FFF733
:10394000A0FD0099F0B1019AC0F1200302FA03F33F
:103950000B43C2407B610192019BBB61002B14BFF2
:10396000022101213961C4B1A4F23344044434601A
:10397000C0F135002860384603B0BDE8F08343F459
:103980008013D6E77961E7E701A8FFF77AFD019B8D
:103990007B61012139612030E5E707EB8103A0F26B
:1039A000324030601869FFF74CFDC0EB4110E1E791
:1039B0002DE9F74F884669468146FFF75BFF01A96D
:1039C000404657EC106BFFF755FFD9F81030D8F888
:1039D0001020A3EB020CDDE900329B1A03EB4C1321
:1039E0005BEC10AB002BCEBF3A46C3EB03335A4619
:1039F00059463D46D4BF02EB035102EB0355304616
:103A000010EE102A0B462946FDF750FD41EC100B35
:103A100003B0BDE8F08F1728D0B5044607DC094B8A
:103A200003EBC004D4E9040141EC100BD0BD0649FE
:103A3000064F0020002632463B46FDF70DFC013CB8
:103A4000F9D1F1E788B801080000F03F00002440F8
:103A5000013910B549111469013102F1140300EB69
:103A6000810103EB8404A342024603D300238A426C
:103A700005D310BD53F8042B40F8042BF3E742F8AC
:103A8000043BF4E700F1140200694B11984210B5B1
:103A900011DB0ADD11F01F0107D052F8234024FA90
:103AA00001F000FA01F18C420BD102EB8303934247
:103AB00003D8002010BD0346F7E753F8041D002982
:103AC000F5D00120F6E700BF38B50546002945D0FE
:103AD00051F8043C0C1F002BB8BFE41801F0BDFBEB
:103AE0001F4A1368104633B9636014602846BDE866
:103AF000384001F0B3BBA3420CD92168621893424D
:103B000004BF1A685B68636004BF521822600460D7
:103B1000ECE713465A680AB1A242FAD91968581854
:103B2000A0420BD120680144581882421960DDD1AF
:103B3000106852685A6001441960D7E702D90C2313
:103B40002B60D3E7206821188A4204BF11685268AD
:103B5000626004BF091821605C60C7E738BD00BF20
:103B600024000020F8B5CE1C26F0030608360C2EE3
:103B700038BF0C26002E074601DBB14203D90C23C7
:103B80003B600020F8BD214D01F067FB2A68144618
:103B900094B96B6823B92146384600F003FA68608F
:103BA0003146384600F0FEF9431C23D10C233B601C
:103BB000384601F053FBE4E723689B1B17D40B2B1B
:103BC00003D923601C44266004E06368A2420CBF52
:103BD0002B605360384601F041FB04F10B00231DBC
:103BE00020F00700C21ACDD01B1AA350CAE7224604
:103BF0006468CDE7C41C24F00304A042E3D0211A7A
:103C0000384600F0CFF90130DDD1CFE724000020A5
:103C10002DE9F0478E689E4282460C4691469846B2
:103C200038D8B1F80CC01CF4906F31D062692568A7
:103C3000096902EB42026F1A02EBD272013355108E
:103C40003B449D4238BF1D461CF4806F30D029464E
:103C5000FFF788FF064650B90C23CAF80030A38945
:103C600043F04003A3814FF0FF30BDE8F0873A46B0
:103C7000216901F08FF9A38923F4906343F0800355
:103C8000A381266165613E44ED1B2660A560464622
:103C9000464500D9464632464946206801F09BF920
:103CA000A3689B1BA36023681E4426600020DCE7FA
:103CB0002A4601F0D4FA06460028E2D1216950468E
:103CC000FFF702FFC8E793682DE9F74F81460C46DE
:103CD0001646002B5ED04FF0000BD2F800A05F46D6
:103CE00057B3A3689F4240D3A28912F4906F3CD08F
:103CF00025682169A5EB0108656905EB450505EB1C
:103D0000D57508F101033B446D109D4238BF1D4637
:103D1000530544D529464846FFF724FF88B90C23AC
:103D2000C9F80030A38943F04003A3810023C6E90A
:103D300001334FF0FF302FE0DAE900B70AF1080A4B
:103D4000CEE742462169019001F024F9A289019B46
:103D500022F4906242F08002A281236165614344B3
:103D6000A5EB08052360A5603B46BB4228BF3B4648
:103D70001A4659462068019301F02DF9A268019B6B
:103D8000D21AA260226813442360B368DF1BB760B5
:103D9000002FD1D10020706003B0BDE8F08F2A461B
:103DA000484601F05CFA03460028D6D1216948460E
:103DB000FFF78AFEB3E72DE9F04F1E468B891B06FD
:103DC0009DB007460D4614460ED50B6963B94021D8
:103DD000FFF7C8FE2860286120B90C233B604FF034
:103DE000FF30C9E040236B610023099320238DF845
:103DF0002930DFF89C91039630238DF82A304FF05C
:103E0000010A23461E4613F8012B0AB1252AF9D1CF
:103E1000B6EB040B0BD05B46224629463846FFF72B
:103E2000F7FE013000F0A380099B5B4409933378CF
:103E3000002B00F09C8000234FF0FF32CDE90523DA
:103E40000136049307938DF853301A9334460522B4
:103E500014F8011B4E48FCF7C3F9049BC0B9D906FE
:103E600044BF20228DF853201A0744BF2B228DF81F
:103E7000532032782A2A13D0079A344600200A2683
:103E8000214611F8013B303B092B4BD970B914E0A6
:103E9000A0EB09000AFA00F0184304902646D5E783
:103EA000039A111D12680391002A01DB079204E0B6
:103EB000524243F002030792049323782E2B0CD135
:103EC00063782A2B33D1039B1A1D1B680392002BA6
:103ED000B8BF4FF0FF33023405932E4E21780322F2
:103EE0003046FCF77DF938B14023801B03FA00F01F
:103EF000049B03430134049314F8011B26488DF8F6
:103F000028100622FCF76CF9002838D0234B13BB8D
:103F1000039B073323F0070308330393099B4344B0
:103F200009936EE706FB023201200C46A8E7002346
:103F30000134059319460A26204610F8012B303A21
:103F4000092A03D9002BC8D00591C6E706FB012139
:103F500001230446F0E703AB00932A46104B04A963
:103F60003846FEF7BAF9B0F1FF3F8046D6D1AB89AB
:103F70005B063FF534AF09981DB0BDE8F08F03AB89
:103F800000932A46064B04A93846FEF746FCEAE7AA
:103F90004D0502085305020857050208DB220008F8
:103FA000113C000838B5064C00230546084623603E
:103FB0000EF008FE431C02D1236803B12B6038BD0C
:103FC00054E7002038B5D0F8484105465CB9802157
:103FD000FFF7C8FDC5F8480138B1031F7C3043F82E
:103FE000044F8342FBD1002038BD4FF0FF30FBE788
:103FF0001F2970B504460D46164604D916230360E2
:104000004FF0FF3008E0D0F8483133B1D4F84831F0
:1040100053F8250043F8256070BDFFF7D3FF002853
:10402000F4D0EDE71F2938B504460D4604D9162310
:1040300003604FF0FF3038BDD0F8482112B152F87C
:1040400021304BB9204600F06BF82A460146204645
:10405000BDE8384000F052B8012B0AD0591C03D1FA
:10406000162303600120E6E7002442F82540284695
:1040700098470020DFE71F2938B504460D4602D9CE
:104080004FF0FF3038BDD0F8483133B1D4F8482173
:1040900052F8253033B90120F4E7FFF793FF0028E9
:1040A000F4D0EDE7591C08D0012B08D00024284695
:1040B00042F8254098472046E4E70220E2E7032043
:1040C000E0E7024B01461868FFF7ACBFF8F30120A8
:1040D000024B0A4601461868FFF78ABFF8F3012031
:1040E000014B1868FFF76EBFF8F30120024B014641
:1040F0001868FFF7C0BF00BFF8F3012038B5074CC0
:104100000023054608461146236014F0ABFF431C0C
:1041100002D1236803B12B6038BD00BF54E70020F3
:1041200014F0A2BF0EB430B59AB01DAC4FF40172BA
:1041300054F8045BADF810200190059000F0F3FFF7
:104140000B4B0290069009930A48009400230D93AC
:1041500012934FF6FF73ADF812302A46234601A999
:10416000006800F0DDF81AB0BDE8304003B07047D9
:10417000EF510008F8F301200CB470B59AB01EACF2
:1041800005464FF40173084654F8046BADF810303F
:104190000191059100F0C7FF0B4B099300230D938C
:1041A00012934FF6FF7302900690ADF8123032462C
:1041B000234601A92846009400F0B2F81AB0BDE8E1
:1041C000704002B0704700BFEF51000838B5074C8F
:1041D000054608461146002222601A4614F039FFAF
:1041E000431C02D1236803B12B6038BD54E7002083
:1041F00038B5064C002305460846236014F02DFF11
:10420000431C02D1236803B12B6038BD54E7002062
:1042100038B5074C054608461146002222601A466A
:1042200014F01EFF431C02D1236803B12B6038BD7C
:1042300054E7002010B4034CD4F8E440A4465DF8E1
:10424000044B604794F6012082B001B901A942B144
:104250004BB113780B601278101C18BF012002B00C
:1042600070471046FBE76FF00100F8E738B54B1CCC
:10427000144603D14FF0FF35284638BD938923F00B
:1042800020039381236B5268CDB28BB1636B934251
:1042900008DD23685A1E226003F8015C636801335D
:1042A0006360E9E7214600F0E1FA0028F1D0E1E798
:1042B0002169236851B1994208D213F8011CA9421F
:1042C00004D1013B013223606260D5E7C4E90E32BC
:1042D00004F14003236303236363234603F8425F2F
:1042E00023600123DCE710B50C46096B69B104F1CA
:1042F0004003994201D0FFF7E7FBE36B63600020C6
:10430000206313B1A36B236010BD236923600023D6
:104310006360A38943F02003A3814FF0FF30F3E7EC
:104320002DE9F04F0C46ADF5237D0021CDE9441178
:104330009A49A0910DF1040899499A4FDFF86892C3
:10434000CDF818810646A191009392F800A0BAF129
:10435000000F00F020811AF8073013F0080302F173
:10436000010519D06368002B0FDD23681A78BA5C49
:10437000120701D42A46E8E7459A0132459262685D
:104380000133013A62602360ECE7A19B214630468D
:1043900098470028E9D0EDE7BAF1250F7DD1419388
:1043A000439353782A2B02BF1023951C41930A2272
:1043B000AB461BF8011BA1F13003092B21D90322C5
:1043C0007948FBF70DFF38B1A0EB090301209840B5
:1043D000419B184341905D4615F8013B672B48D837
:1043E000652B80F09E80472B12D8452B80F099805A
:1043F000002B6BD0252B50D0032347930A234293E5
:1044000016E0439B02FB0313303B43935D46CFE72B
:104410005B2B67D027D8582BEED1419A42F400721B
:10442000419210226F2B429234BF032304234793FF
:104430006368002B77DD419B590604D423681A7802
:10444000BA5C120776D4479B022B00F386806B463A
:10445000224641A9304600F0ABF8012800F09B80CD
:10446000022887D12FE0632B47D0642BC4D10A22C6
:10447000D8E7702B2DD008D86E2B44D02ED8692BBE
:10448000BAD1002342930323D1E7752BEFD0782BC9
:10449000C3D0732BB0D10223C9E76368002B0CDDB6
:1044A00023681A78524576D1013362682360459BB0
:1044B000013A0133626045935CE7A19B2146304697
:1044C00098470028ECD0449800285AD14FF0FF308C
:1044D0005DE0419A42F0200241929EE70823429318
:1044E0000423A4E72946404600F0DFFE419B43F049
:1044F000400341930546012399E7419B43F0400364
:104500004193002393E74198C3063FF533AF009BE7
:10451000459A191D00911B68C0074CBF1A801A608C
:1045200028E7052383E7A19B2146304698470028CA
:1045300081D0C8E7459A013245926268013A002A63
:10454000626002DD0133236078E7A19B214630469B
:10455000984700283FF472AFB5E7042B06DC6B46A2
:10456000224641A9304600F07BF876E70F4B002B3E
:104570003FF400AF6B46224641A93046AFF30080BE
:104580006BE7A38913F0400F18BF4FF0FF300DF514
:10459000237DBDE8F08F4498F9E700BF6D42000825
:1045A000E742000801BB01085305020800000000B3
:1045B0002DE9F84315468A6880460C4632B98A6967
:1045C000002A0CBF01224FF0FF328A602268DFF818
:1045D0008C90D1065FBF1A68111D196016680027FC
:1045E000A06988B1012807D12B681A7863699B5CA0
:1045F00053B927BBBDE8F883022820D12B681B786C
:1046000013F809301B071AD42368DA065EBF2B683B
:104610001B7806F8013B2A686B6801322A60A268A1
:10462000013B013A6B600137A26042B1002BD7DC3D
:10463000D4F880312946404698470028D0D02368D6
:1046400013F0100305D1E2680132E260A26902B101
:10465000337023691F4427610020CBE701BB0108A9
:104660002DE9F04F9946744B0C468246164693E866
:10467000070087B003AB83E80700704BA169704A5D
:10468000032918BF1A46A36801925A1EB2F5AE7FDD
:1046900088BF6FF4AE75274682BF03EB050840F272
:1046A0005D13A36057F81C3B43F4506398BF4FF071
:1046B000000823603D464FF0000B316803AB022237
:1046C000097853F82B00FBF78BFD28B3BBF1010FE2
:1046D00059D162682AB92268082342F400726360E3
:1046E0002260226822F4A0622260A268511EA160AA
:1046F00092B13268511C3160127805F8012B726852
:10470000013A002A726007DCD4F880213146504615
:104710009047002840F085800BF1010BBBF1030F9F
:10472000CBD163680BB90A2363606368454960694C
:10473000C91A00F0BAFD4FF0000BA3682268002BE5
:104740003DD03168606991F800C010F80C00002875
:1047500035D0BCF1300F24D1100522D50BF1010B5F
:10476000B8F1000F03D0013308F1FF38A36073687C
:10477000013B002B73601BDD336801333360A3689A
:10478000013BA360D9E7BBF1020FAED1226802F46E
:10479000C061B1F5007FBFD11023636042F4807225
:1047A000A2E722F4106222600B7805F8013BDEE7F5
:1047B000D4F880313146504698470028DFD023682E
:1047C000D9050DD5BD4209D915F8011CD4F87C31A5
:1047D00032465046984705F1FF384546BD4228D03D
:1047E000226812F0100213D12A706368019E3946C4
:1047F0005046B047D9F8003021681A1DC9F800208A
:1048000011F0200F1B680FD01860E3680133E360DC
:10481000ED1BAB4425695D442561002007B0BDE870
:10482000F08F4FF0000BCAE7CA074CBF1880186022
:10483000EBE70120F2E700BFF4BA0108BD2C000845
:10484000AD2B00087405020838B5074C054608462C
:104850001146002222601A4614F0F7FB431C02D1D5
:10486000236803B12B6038BD54E700202DE9F041E7
:104870000C46096B04F1400399421DD14FF480614D
:10488000FFF770F918B94FF0FF30BDE8F0814FF431
:104890008063636394F84230206380F8FF3394F8B8
:1048A000413080F8FE3394F8403080F8FD3300F258
:1048B000FD3020600020E8E7666B77003A4600F0A4
:1048C000CEFC05460028DED000EB06080146324645
:1048D000404600F05FFBC4F80080C4E90C57E9E7EC
:1048E0004B1C70B506460D46144603D14FF0FF35FC
:1048F000284670BD18B1836B0BB900F067F9B4F9A5
:104900000C3023F02003A3819BB2590713D4DA069D
:10491000ECD51B070BD52146304600F0EDF80028FA
:10492000E4D1A389A06023F00803A381A061A38937
:1049300043F00403A381236B6268EDB293B1636B10
:10494000934208DD23685A1E226003F8015C636805
:1049500001336360CCE721463046FFF787FF00282C
:10496000F0D0C3E72169236851B1994208D213F806
:10497000011CA94204D1013B013223606260B7E708
:10498000C4E90E3204F14003236303236363234627
:1049900003F8425F23600123DBE7034B0A4601462D
:1049A0001868FFF79DBF00BFF8F3012010B4034C57
:1049B000D4F8E040A4465DF8044B604794F601202B
:1049C00049B1FF2A85BF8A2303600A704FF0FF3088
:1049D00098BF012070470846704700BFB1F90C200E
:1049E00093B22DE9F041054618070C465FD44B6899
:1049F00042F40062002B8A8105DCCB6B002B02DCC9
:104A00000020BDE8F081A66A002EF9D0002312F440
:104A100080522F682B6036D0206DA3895A0705D5A8
:104A20006368C01A236B0BB1E36BC01A0023024604
:104A3000A66AE1692846B047431CA38906D12968C4
:104A40001D2930D82B4ACA40D6072CD523F4006341
:104A50001BB200226260D9042269A381226004D5BE
:104A6000421C01D12B6803B92065216B2F600029FE
:104A7000C6D004F14003994202D02846FFF724F83B
:104A800000202063BDE7E16901232846B047411CAF
:104A9000C3D12B68002BC0D01D2B01D0162B01D108
:104AA0002F60ADE7A38943F04003A381A9E70F6915
:104AB000002FA5D09B070E6808BF4B690F6018BF79
:104AC0000023A6EB07088B60B8F1000F98DD434682
:104AD0003A46E169666A2846B047002806DCA389A1
:104AE00043F04003A3814FF0FF308AE70744A8EB6F
:104AF0000008E9E70100402038B50D46044618B12A
:104B0000836B0BB900F062F8B5F90C0028B12946A7
:104B10002046BDE83840FFF761BF38BD014620B9E7
:104B2000044B0549186800F00EBC044B1868FFF7E9
:104B3000E3BF00BF90BA0108F94A0008F8F301206A
:104B4000002310B50446C0E9003383608181036609
:104B5000C281C0E90433836119460822583000F04D
:104B600054FA054B2362054B6362054BA362054B68
:104B7000E461E36210BD00BFCD510008F3510008AD
:104B80002B5200084F520008014900F0DCBB00BF67
:104B9000F94A000870B54A1E642555430E4605F1D2
:104BA0007001FEF7DFFF044640B10021C0E90016A6
:104BB0000C30A06005F1640200F027FA204670BDB9
:104BC000014B1868FFF7E0BF90BA0108826B10B57F
:104BD0000446D2B90D4BC3630323C0F8503100F52E
:104BE000AC73C0F85431C0F84C2104214068FFF781
:104BF000A7FF01220921A068FFF7A2FF02221221CC
:104C0000E068FFF79DFF0123A36310BD894B0008F7
:104C1000F8B51B4B1E68B36B074613B93046FFF758
:104C2000D5FF06F5A676D6E90134013B03D53368F6
:104C3000DBB13668F7E7B4F90C50A5B9114B25661E
:104C4000C4E90055A560C4E90335C4E90555082247
:104C5000294604F1580000F0D8F9C4E90C55C4E91C
:104C600011552046F8BD6434DFE704213846FFF7CC
:104C700091FF044630600028DBD10C233B60F0E755
:104C800090BA01080100FFFF4FEA410C7FEA6C5C1B
:104C900002D150EA013C0AD14FEA430C7FEA6C5C36
:104CA00002D152EA033C02D14FF0000070474FF0AE
:104CB000010070472DE9F04F099F154604468E46C6
:104CC0001E46002B40F0CC808A42B2FA82FC4CD9BE
:104CD000BCF1000F0BD0CCF1200801FA0CFE20FA39
:104CE00008F802FA0CF548EA0E0E00FA0CF44FEA46
:104CF00015491FFA85F8BEFBF9FA210C09FB1AE3E6
:104D00000AFB08FB41EA03439B452AD9EB180AF149
:104D1000FF3004D29B4502D9AAF102002B44A3EB39
:104D20000B03A4B2B3FBF9F209FB123302FB08F840
:104D300044EA0344A04516D92C1902F1FF3303D2EB
:104D4000A04501D9931E2C44A4EB080443EA00407B
:104D500027B124FA0CF400233C607B603146BDE8A7
:104D6000F08F5046DBE71346EEE702B9FFDEBCF1F9
:104D7000000F2ED18B1A01264FEA154EAAB2B3FBB3
:104D8000FEF8210C0EFB183308FB02F941EA03433D
:104D9000994561D9EB1808F1FF3004D2994502D941
:104DA000A8F102002B44A3EB0903A4B2B3FBFEF16C
:104DB0000EFB11334A4344EA0344A2424ED92C1954
:104DC00001F1FF3303D2A24201D98B1E2C44A41A55
:104DD000BCE7CCF1200E02FA0CF521FA0EF901FA2B
:104DE0000CF320FA0EFE4EEA03034FEA154800FAD0
:104DF0000CF4B9FBF8F11FFA85FE08FB1192180CB0
:104E000001FB0EF640EA0242964221D9AA1801F1AE
:104E1000FF3003D2964201D9881E2A44921B9BB2CE
:104E2000B2FBF8F908FB192209FB0EFE43EA024324
:104E30009E450FD9EB1809F1FF3604D29E4502D9E1
:104E4000A9F102062B44A3EB0E0346EA004693E7C2
:104E50000846E3E74E46F6E74046A4E70B46B6E7CA
:104E60008B4205D90FB1C7E900010026304675E72E
:104E7000B3FA83FCBCF1000F0FD18B4201D3824205
:104E800009D8841A61EB030E0120002F6AD0C7E90C
:104E9000004E002662E76046F7E7CCF1200E03FAE9
:104EA0000CF322FA0EF521FA0EF41D4301FA0CF36D
:104EB00020FA0EF10B434FEA154A00FA0CF6B4FB48
:104EC000FAF91FFA85F80AFB19401C0C09FB08F1D6
:104ED00044EA0044A14202FA0CF23FD92C1909F12C
:104EE000FF3004D2A14202D9A9F102002C44641A75
:104EF0009BB2B4FBFAF90AFB194409FB08F843EA30
:104F0000044188452CD9691809F1FF3304D288453A
:104F100002D9A9F10203294443EA0040A1EB0801A8
:104F2000A0FB02894945C2464C4602D306D14645FC
:104F300004D2B8EB020A69EB0504013897B1B6EB6D
:104F40000A0361EB040606FA0EFE23FA0CF34EEA9E
:104F5000030326FA0CF6C7E900369AE74846C6E787
:104F60004B46D9E73E46F9E60A220021FDF728BE66
:104F70000A230022FDF71ABE30B501390024A242EF
:104F800001D1002005E0035D01340D5DAB42F6D098
:104F9000581B30BD0A44914200F1FF3300D17047E5
:104FA00010B511F8014B03F8014F9142F9D110BD32
:104FB0009A4208B501D9FEF719F9814204D88B1835
:104FC0009842F8D3814202D183189942F3D3BDE8C5
:104FD0000840FFF7DFBF884210B501EB020302D99A
:104FE00083421C4607D8421E994208D011F8014B53
:104FF00002F8014FF8E783189A1A9A4200D110BDBF
:1050000014F8011D03F8011DF7E70244034693421B
:1050100000D1704703F8011BF9E79A4208B501D99E
:10502000FEF7E4F8BDE80840FFF7EFBF08B417B596
:1050300005AB141E53F8041B019307DA1A46FEF75A
:10504000CBF803B0BDE8104001B070470A462146D6
:10505000FEF79EF80028F4DBA042F2D3FEF7C6F874
:1050600010B503461A4612F8014B3CB9013B11F842
:10507000012B03F8012F002AF9D110BD1346F1E7E7
:1050800038B50446234614F8015B35B9013911F8E7
:10509000014F3CB912B11C7038BD0AB9FEF7A6F831
:1050A000013AEFE7002AF9D003F8014B013AEEE7A5
:1050B000C9B2034610F8012B1AB18A42F9D1184639
:1050C0007047002918BF0023F9E710F8012B11F8E9
:1050D000013B012A28BF9A42F7D0D01A70470346F5
:1050E00011F8012B03F8012B002AF9D1704770B594
:1050F0000546084616460C4600F015F8421CB2421A
:1051000001D9FEF773F8AC4204D8A3189D42F8D336
:10511000AC4202D1AB189C42F3D321462846BDE8ED
:105120007040FFF737BF034613F8012B002AFBD16D
:10513000181A0138704710B56AB10139841810F88F
:10514000013B11F8012F934203D1A04201D0002B63
:10515000F5D1981A10BD1046FCE7F0B50C7864B193
:1051600003461A7818465E1C0AB9104605E09442B8
:1051700008D10D4615F8012F02B9F0BD13F8017FD3
:105180009742F7D03346ECE7002910B591FBF2F4D3
:1051900002FB141306DB002B01DA01349B1AC0E971
:1051A000004310BD002BC4BF04F1FF349B18F6E789
:1051B00038B502FB01F42146FEF7D4FC054618B1D0
:1051C00022460021FFF721FF284638BD10B50C46C6
:1051D000B1F90E10FFF738FB0028ABBF236DA38990
:1051E0001B1823F48053ACBF2365A38110BD00209E
:1051F00070472DE9F0411F468B89DB0505460C46BB
:10520000164605D502230022B1F90E10FFF700F86B
:10521000A389B4F90E1023F48053A38132463B4690
:105220002846BDE8F041FEF7D1BF10B50C46B1F9F4
:105230000E10FEF7EDFF431CA38915BF206523F474
:10524000805343F48053A38118BFA38110BDB1F9EB
:105250000E10FEF7CDBF7047704770477047F8B526
:10526000074614460E4621B91146BDE8F840FEF740
:1052700079BC22B9FEF728FC25462846F8BD00F087
:1052800080F8A0420FD221463846FEF76BFC054657
:105290000028F2D031462246FFF77CFE31463846E0
:1052A000FEF712FCE9E73546E7E770B50B785E2BB1
:1052B00013BF4A1C8A1C4B78002108BF0121441EE1
:1052C00000F1FF0504F8011FAC42FBD113B9013A0C
:1052D000104670BD81F00104C454511C11F8015CEA
:1052E0002D2D01F1FF360A4606D05D2DF0D00DB907
:1052F0003246EDE72B46EFE70E785D2EFAD0B3424B
:10530000F8DC01339E42C454FBDC0231E6E72DE9B0
:10531000F041884600F5A674002614B93046BDE871
:10532000F081D4E90175013F01D52468F5E7AB8927
:10533000012B06D9B5F90E30013302D02846C047FB
:1053400006436435EFE72DE9F8438046894600F5CA
:10535000A674002614B93046BDE8F883D4E9017577
:10536000013F01D52468F5E7AB89012B07D9B5F9D1
:105370000E30013303D029464046C8470643643502
:10538000EEE751F8043C181F002BBCBF0B58C018A7
:1053900070470000000000002DE9D04310EE100A15
:1053A0002DED028B10EE104AFBF7FEFE544A6FF013
:1053B0004843FCF7E1F9002800F08A802046C0F35A
:1053C000160007EE900AF8EEE77AE41517EE900A59
:1053D000FBF7EAFE6FF003024A4BFBF73DFFFCF7D9
:1053E000FDF908EE900AFBF7DFFE3BA3D3E90023AB
:1053F000FBF732FF0022444BFBF778FDFCF7EEF998
:10540000FBF7D2FE28EEA88A064618EE100A0F46D1
:10541000FBF7CAFE32A3D3E90023FBF71DFF0246C8
:105420000B4630463946FBF761FD28EE888A8046F8
:1054300018EE100A8946FBF7B7FE2BA3D3E9002329
:10544000FBF70AFF06460F4640464946FCF7C6F9F9
:10545000FBF7AAFE02460B4630463946FBF746FDEF
:1054600068EE887A804617EE900A8946FBF79CFE24
:105470001FA3D3E90023FBF7EFFE06460F46404685
:105480004946FCF7ABF9FBF78FFE0B46024639465F
:105490003046FBF72BFDFCF7A1F97F3CE30700EE5C
:1054A000100A0AD5FBF780FE13A3D3E90023FBF70C
:1054B000D3FEFCF793F900EE100A64107F34E40584
:1054C00007EE904A20EE270ABDEC028BBDE8D083A0
:1054D0009FED0E0AF8E700BF038353106AF9DF3F20
:1054E00046C81AED52D7BEBF11C49851357AA73FAE
:1054F00095535FA84C0C86BFCD3B7F669EA0F63FC0
:10550000E664FDFFFFFF7F3E0000F03F000000006B
:10551000F8B510EE100A2DED028BB0EE408AFBF7C5
:1055200043FE00225C4BFBF797FE4FA3D3E9002319
:10553000FBF7DCFCFCF72AF9A0F58060430000EEE5
:10554000103AB8EEC00A38EE400A60EE008A10EE5B
:10555000100A20EE288AFBF727FE45A3D3E9002393
:10556000FBF77AFEFCF73AF9FBF71EFE044618EE4D
:10557000100A0D46FBF718FE3FA3D3E90023FBF703
:105580006BFE02460B4620462946FBF7AFFC28EE91
:10559000888A064618EE100A0F46FBF705FE38A368
:1055A000D3E90023FBF758FE04460D463046394642
:1055B000FCF714F9FBF7F8FD02460B462046294696
:1055C000FBF794FC28EE888A064618EE100A0F4670
:1055D000FBF7EAFD2CA3D3E90023FBF73DFE0446CD
:1055E0000D4630463946FCF7F9F8FBF7DDFD02467B
:1055F0000B4620462946FBF779FC68EE887A06467A
:1056000017EE900A0F46FBF7CFFD21A3D3E9002345
:10561000FBF722FE04460D4630463946FCF7DEF81D
:10562000FBF7C2FD02460B4620462946FBF75EFC0F
:10563000FCF7D4F8FBF7B8FD04460D4602460B46CE
:10564000FBF754FC22462B46FBF706FE02460B46B0
:1056500000201249FBF748FCFCF7C0F8BDEC028BB8
:1056600000EE100AF8BD00BF0000000000029040EC
:10567000282D4454FB21F93FA08905D3BCABE4BFDE
:10568000D179F3EEAA66B43FF3D7C768102873BF89
:10569000D26BFC04D70E243F0000E03F0000F03F37
:1056A00008B510EE100AFBF77FFD07A3D3E900232E
:1056B000FBF7D2FDFCF792F8BDE8084000EE100AB7
:1056C000FFF726BFAFF3008083C8C96D305FD43FBA
:1056D000B5EE400AF1EE10FA08B512D010EE100A3D
:1056E000FBF762FD0B46024608A1D1E90001FBF77A
:1056F000FBFBFCF773F8BDE8084000EE100AFFF76B
:10570000CFBF9FED010A08BD00000000182D4454D2
:10571000FB21F93F00000000F8B5FFEE007AB4EE7F
:10572000E70AF1EE10FA2DED048BB0EE408A6AD54F
:1057300087EE808ADFED449A28EE089A19EE100A67
:10574000FBF732FD38A3D3E90023FBF785FD0022E8
:105750003E4BFBF7CBFBFCF741F8FBF725FD69EE71
:10576000098A044618EE900A0D46FBF71DFD30A38A
:10577000D3E90023FBF770FD02460B46204629467D
:10578000FBF7B4FB69EE288A064618EE900A0F462E
:10579000FBF70AFD28A3D3E90023FBF75DFD0446D0
:1057A0000D4630463946FCF719F8FBF7FDFC02467A
:1057B0000B4620462946FBF799FB69EE287A0646F8
:1057C00017EE900A0F46FBF7EFFC1DA3D3E9002369
:1057D000FBF742FD04460D4630463946FBF7FEFF17
:1057E000FBF7E2FC02460B4620462946FBF77EFB10
:1057F000FBF7F4FF07EE900A88EE270A30EE290A3D
:10580000BDEC048BF8BDB7EE007AB4EEC70AF1EE3A
:1058100010FAC6BF87EE808ADFED0D9ADFED0D9A94
:105820008AE700BFAFF3008073156BC80F4ED53FFA
:10583000C617ABB389ADB5BF65009130C4A6A03F14
:10584000006DD39A0AB17EBFDB0FC9BF0000F03FE5
:10585000DB0FC93F0000000008B5B5EE400AF1EECD
:1058600010FA2DED028BB0EE408A2AD0B7EE000A76
:1058700008EE480AFFF790FDB5EEC08AF1EE10FA87
:1058800017D5B1EE400A80EE080AFFF745FFF1EEAA
:10589000407A17EE900AFBF787FC0CA3D3E90023AC
:1058A000FBF724FBFBF79AFFBDEC028B00EE100A1E
:1058B00008BD80EE080ABDEC028BBDE80840FFF78A
:1058C0002BBF0148F0E700BFDB0FC93F182D445440
:1058D000FB21094000000000F8B52DED048B037892
:1058E0002D2B04460D463FD10134FFEE008AB7EE62
:1058F000007A01219FED208A1DA7D7E90067B2EE4B
:10590000049A21E0013417EE100AFBF74DFC3B46E8
:105910003246FBF7A1FCFBF761FF2378303B07EE33
:10592000903A07EE100AF8EEE77A002107EE878A30
:1059300009E00029E7D007EE903AF8EEE77A48EE62
:10594000097AB0EE678A01342278A2F13003D8B226
:105950000928EED92E2AD5D02B6803B12C6028EE69
:10596000280ABDEC048BF8BDF7EE008ABFE700BF44
:105970009A9999999999B93F000000000000000098
:1059800010B5302298B00C460DEB02000021FFF755
:105990003CFB182200216846FFF737FB1822002144
:1059A0000DEB0200FFF731FB21460CA801F01CFDB6
:1059B000014620B1884811F036FE18B010BD9DF8A0
:1059C0003030013B052BF8D801A252F823F000BF7C
:1059D000E9590008535A0008BB590008835A0008C7
:1059E000BB590008655B0008002411980194FBF77F
:1059F000DBFB77A3D3E90023FBF758FDFBF7EEFEB3
:105A000003901298FBF7D0FB71A3D3E90023FBF7B7
:105A10004DFDFBF7E3FE04901398FBF7C5FB6CA369
:105A2000D3E90023FBF742FDFBF7D8FE0E9B059060
:105A300022466946694800930EF058FF0028BCD002
:105A4000664815F052F96548224669460EF04EFF49
:105A5000B3E701230193119B0393129B0493139BC0
:105A6000059300220E9B5E48009369460EF03EFFB0
:105A70000028A2D05A4815F038F900226946584843
:105A8000E4E7022311980193FBF78EFB50A3D3E9BF
:105A90000023FBF70BFDFBF7A1FE03901298FBF729
:105AA00083FB4BA3D3E90023FBF700FDFBF796FE36
:105AB00004901398FBF778FB45A3D3E90023FBF789
:105AC000F5FCFBF78BFE0E9B0590002269464548CE
